:020000040800F2
:10000000A0070010C1010008B5410008593E0008D2
:10001000B1410008E10300087D470008000000002E
:10002000000000000000000000000000BD410008CA
:10003000FD03000800000000B9410008C1410008AC
:10004000DB010008DB010008DB010008DB01000820
:10005000DB010008DB010008DB010008DB01000810
:1000600001040008DB010008DB010008DB010008D7
:10007000DB010008DB010008DB010008DB010008F0
:10008000DB010008DB010008D5030008DB010008E4
:10009000DB010008DB010008DB010008DB010008D0
:1000A000DB010008D9410008DB010008DB01000882
:1000B000DB010008DB010008DB010008DB010008B0
:1000C000DB0100085D3E0008DB010008DB010008E1
:1000D000DB01000871470008DB010008DB010008B4
:1000E000DB010008DB010008DB010008DB01000880
:1000F000DB010008DB010008DB010008DB01000870
:10010000DB010008DB010008DB010008DB0100085F
:100110003D430008DB010008E5410008F14100080B
:10012000DB010008DB010008E5030008DB01000833
:10013000DB010008DB010008DB010008DB0100082F
:10014000DB010008DB010008DB010008DB0100081F
:10015000DB010008DB010008F1030008DB010008F7
:10016000DB010008DB010008DB010008DB010008FF
:10017000DB010008DB010008DB01000800000000D3
:10018000DB010008DB010008DB010008DB010008DF
:10019000DB010008DB010008DB010008DB010008CF
:1001A000DB010008DB010008DB010008DFF80CD0F0
:1001B00000F098F800480047FD870008A0070010ED
:1001C0000648804706480047FEE7FEE7FEE7FEE7F1
:1001D000FEE7FEE7FEE7FEE7FEE7FEE7C5410008B3
:1001E000AD0100082DE9F05F0546002092469B46D0
:1001F00088460646814640241BE02846414647463D
:10020000224600F041F853465A46C01A914110D395
:1002100011461846224600F028F82D1A67EB01080F
:100220004F4622460120002100F01FF817EB00097D
:100230004E41201EA4F10104DFDC484631462A4627
:100240004346BDE8F09F40EA01039B0703D009E065
:1002500008C9121F08C0042AFAD203E011F8013BB2
:1002600000F8013B521EF9D27047202A04DB203AE5
:1002700000FA02F1002070479140C2F1200320FAF9
:1002800003F3194390407047202A04DB203A21FAF7
:1002900002F00021704721FA02F3D040C2F120029F
:1002A000914008431946704710B541000CD0C0F387
:1002B000C751962908DC7E2909DC06DB410204D0FF
:1002C00000F0004040F07E5010BD002010BDC1F194
:1002D0009604C4F1200100FA01F1E04000F014F8A6
:1002E000A04010BD064C074D06E0E06840F0010359
:1002F00094E8070098471034AC42F6D3FFF75AFF52
:1003000048360108883601080029A8BF7047401CFC
:10031000490008BF20F00100704710B4B0FA80FC1B
:1003200000FA0CF050EA010404BF10BC704749B158
:10033000CCF1200421FA04F411FA0CF118BF0121C8
:1003400021430843A3EB0C01CB1D4FEA00614FEAA8
:10035000102042BF002010BC704700EBC350104477
:100360000029A4BF10BC7047401C490008BF20F002
:10037000010010BC704770B58D1810F8014B14F0D7
:10038000030201D110F8012B231106D110F8013B13
:1003900003E010F8016B01F8016B521EF9D1ABB10B
:1003A00010F8012B04F00C048A1A0C2C03D0A2EBD9
:1003B00084129B1C08E010F8014BA2EB0422F8E722
:1003C00012F8014B01F8014B5B1EF9D5A942D4D3B9
:1003D000002070BD40F20810C1F2000000F052B9D8
:1003E000FEE7000040F25010C1F2000000F048BDEE
:1003F00040F2B010C1F2000000F042BD70470000B2
:10040000042001F0B5B8000070470000F0B581B0DD
:1004100040F27C3604460020C1F20006F06101F093
:10042000ABF943F60C470546C4F202073868C0032F
:1004300018D5C4B3601C0DD13868C00312D5386814
:10044000C00344BF38685FEAC0300BD53868C003CA
:10045000F2D407E001F090F9401BA04223D838689D
:10046000C003F7D43868C0071CBF01203860386863
:1004700010F4F97F14D03868C00617D438688006A5
:100480001DD43868400623D43868000629D438685B
:10049000C0052FD43868800736D4012001B0F0BDE4
:1004A000002001B0F0BD032001B0F0BDF06940F0C4
:1004B0001000F0611020386038688006E1D5F069DE
:1004C00040F00800F0612020386038684006DBD535
:1004D000F06940F00400F0614020386038680006A0
:1004E000D5D5F06940F00200F061802038603868AE
:1004F000C005CFD5F06940F00100F0614FF4807085
:10050000386038688007C8D5F06940F02000F06195
:1005100002203860012001B0F0BD000070470000EB
:1005200070B581B00022009290F83C20012A03D1DE
:100530000221084601B070BD012280F83C20D1F8AC
:1005400000E01FFA8EFCBEF10A0F4FEA4C0212FACD
:100550008EF204D303681E3A03F10C0402E0036830
:1005600003F1100407252668954026EA0505256055
:100570008D6805FA02F225682A4322604A68062A35
:1005800005D802EB820203F13401053A0BE002EBDD
:1005900082040C2A87BF03F12C01A4F1410203F16C
:1005A0003001A4F123021F240D6894400CFA02F2DA
:1005B00025EA04040C600E6832430A6042F20431FA
:1005C000C4F20101A1F54172934205D0002180F8E7
:1005D0003C10084601B070BDBEF1110F10D01222C0
:1005E000C1F2000296450BD0BEF1120FEED10A689F
:1005F00022F400020A600A6842F480020A60E5E719
:100600000A6822F480020A600A6842F400020A6062
:100610001221C1F200018E45D8D140F20C014DF6F5
:100620008362C1F20001C4F21B320968A1FB02120D
:10063000910C01EB810149000091009931B9C5E7A6
:1006400000990139009100990029BFD00099013922
:10065000009100990029B9D00099013900910099C1
:100660000029B3D000990139009100990029E7D100
:10067000ACE7000070470000704700000068C06CE5
:1006800070470000B0B504460068026841689207F0
:100690002CD511F0200129D0216CC9065EBF216C38
:1006A00041F400712164816811F0405F17D1217E0F
:1006B000A9B9C16A11F4700F02D0816849050ED43E
:1006C000416821F020014160206C20F4807020649A
:1006D000206CC0045EBF206C40F001002064204606
:1006E000FFF7C8FF20686FF01201016002684168DF
:1006F000520714D511F0800111D0216CC9065EBFDC
:10070000216C41F400512164816811F4401F26D00E
:100710002046FFF703FF20686FF00C0101600268BC
:100720004168D20706D011F040011CBF01685FEAA2
:10073000C17135D10268416892060FD511F0806110
:1007400008BFB0BD616C6FF0200541F0020161642B
:1007500005602046FFF790FF20680560B0BD816B03
:1007600011F4401F02D081684905D1D44168490580
:10077000CED4816811F0405FCAD1217E0029C7D153
:10078000416821F080014160206C20F48050206499
:10079000206CC0055EBF206C40F001002064B7E70C
:1007A000206C40F480302064204600F0B3F82068CC
:1007B0006FF001010160026841689206BED4CDE786
:1007C000002804BF0120704710B50446006CE0B358
:1007D000206CC00643D4206C41F202110123C0F604
:1007E000007388430230206442F20430C4F20100F6
:1007F000016821F4403101606168026811430160C1
:100800002068416821F4807141602169426842EAB0
:1008100001214160416821F040714160A168426856
:1008200011434160816821F400618160E168826860
:1008300011438160A16A826822F0706299428260ED
:10084000826811D122F0405117E0204600F064F890
:10085000002084F83C006064206CC006BBD50120F9
:10086000002184F83C1010BD11438160816821F0A3
:1008700040518160E16A826811438160816821F0A2
:1008800002018160217E826842EA4101816094F820
:100890002020416882B141F400614EF200024160C3
:1008A000CFF6FF72416821F460414160616A02EB5A
:1008B00041314268114301E021F4006141600022AE
:1008C000C16ACFF6F07221F47001C162E16902EBF6
:1008D0000151C26A1143C162816821F400718160D3
:1008E00094F83010826842EA41218160816821F4E5
:1008F000806181606169826842EA812101228160B0
:1009000000206064216C62F301012164002184F8FD
:100910003C1010BD7047000080B586B000210591E5
:10092000CDE90311CDE90111026842F20000C4F2E1
:100930000100824201D006B080BD43F63002009132
:1009400000F56040C4F20202536943F480735361BE
:10095000536903F480730093009B0091136843F084
:1009600001031360126802F001020092009A0391E1
:10097000032102910121019101A900F005FE12203D
:100980000021002201F0CAFD122001F0B7FD06B0DF
:1009900080BD000070B5044600680D4681684905B9
:1009A00044BF80685FEAC0502FD400F0E5FE0646E1
:1009B0002068016889073ED4691C2FD0C5B9016839
:1009C000890747D50168890735D40168890741D56A
:1009D000016889072FD4016889073BD50168890719
:1009E00029D40168890735D501688907E7D522E050
:1009F00000F0C2FE811B2068A94202D90168890764
:100A000028D501688907F3D515E0002084F83C005B
:100A1000206C40F020002064012070BD016889072F
:100A200009D4016889075CBF01685FEA817102D45B
:100A300001688907F2D56FF012010160216C41F461
:100A400000712164816811F0405F01D1217E51B1B4
:100A5000002070BD002084F83C00206C40F00400B1
:100A60002064032070BDC16A11F4700F02D0806849
:100A70004005EDD4206C20F480702064206CC0040C
:100A8000E6D4206C40F001002064002070BD00001E
:100A900081B00021009190F83C10012902BF022092
:100AA00001B07047012180F83C1001688A68D207C4
:100AB0002BD18A684DF68363C4F21B3342F00102E6
:100AC0008A6040F20C02C1F200021268A2FB03230A
:100AD0009A0C02EB42020092009A32B915E000BF74
:100AE000009A013A0092009A7AB1009A013A009273
:100AF000009A52B1009A013A0092009A2AB1009AE3
:100B0000013A0092009A002AEAD18B68026CDB0756
:100B100009D142F010010164416C41F001014164CE
:100B2000002001B0704740F201739A4302F58072D1
:100B300002644A68520504D5026C012363F30D3246
:100B40000264026C0023D20444BF436C23F006030A
:100B5000002280F83C2043646FF02200086042F2DB
:100B60000430C4F201000368A0F54172DB060AD02C
:100B7000914221D14FF60452CFF6FF72805810F007
:100B8000405F19D11BE0914212D042F20022C4F220
:100B90000102914209D042F20012C4F201029142D4
:100BA0000AD10068C00607D102E00068C00603D47D
:100BB000886810F0405F02D0002001B0704788685C
:100BC00040F080408860002001B07047704700000E
:100BD00090F805C00223BCF1010F20D080B503714D
:100BE00002F0100E40F6FE7303FA0EFC03681A685A
:100BF00022EA0C0CD1E90021114301FA0EF141EA7D
:100C00000C011960C0211A6801FA0EF122EA0101F3
:100C100019600023012143710171BDE8804018462D
:100C2000704700007047000010B504460068016876
:100C3000890444BF416B5FEA814118D4016889008F
:100C400046BF416B5FEA810110BD0421217121691A
:100C500041F0020121614FF000514163016821F030
:100C6000805101602046BDE81040FFF7AFBF04216E
:100C70002171216941F0010121614FF4005141636B
:100C8000016821F4805101602046FFF7CBFF206806
:100C9000D4E70000002804BF0120704710B50446C7
:100CA000007920B900206071204600F007F802208A
:100CB0000121207100202061217110BD80B586B016
:100CC00000210591CDE90311CDE90111026847F238
:100CD0000040C4F20000824201D006B080BD43F65D
:100CE0003002009100F5C630C4F20202136943F0ED
:100CF00000531361136903F000530093009B0091AC
:100D0000136843F001031360126802F001020092BD
:100D1000009A0391032102913021019101A900F071
:100D200033FC36200021002201F0F8FB362001F0D0
:100D3000E5FB06B080BD000081B04FF0000C00293B
:100D4000CDF800C0006800900098104414BF143023
:100D50000830009000980360002001B07047000048
:100D600043790222012B29D080B50271012201F0C2
:100D7000100E0029427102FA0EFC0268136843EA61
:100D80000C031360D2F800C00AD03C210CF470139D
:100D900001FA0EF18B420BD1516841F0020106E0DD
:100DA0000CF03C013C2903D1516841F00101516034
:100DB0000022012142710171BDE880401046704758
:100DC00070B5866D044600F0D7FC054694F83500F2
:100DD00002282BD12068016821F0160101604169C9
:100DE00021F080014161216C09B9A16C19B1016840
:100DF00021F008010160016821F001010160006833
:100E0000C00705D119E000BF20680068C00714D0F2
:100E100000F0B2FC401B0528F6D9202060650320B5
:100E200084F83500002184F8341070BD802060659E
:100E30000120002184F8341070BDE06D3F2101FADB
:100E400000F0B060012084F835000020002184F813
:100E5000341070BD90F83510022909D1052180F8B1
:100E600035100068016821F0010101600020704721
:100E7000802141650120704790F8350070470000DF
:100E8000F0B581B00446002048F2B5130821009067
:100E900040F20C00C1F64E33C1F200000268D4E902
:100EA000166037688140A2FB032539420CD02268C6
:100EB00013685B0708D5136823F004031360B1605F
:100EC000616D41F00101616501218140394208D025
:100ED00022685269120604D5B160616D41F00201C9
:100EE000616504218140394208D022681268920766
:100EF00004D5B160616D41F004016165102181404C
:100F0000394217D020680268120713D5B160026811
:100F10000168520308D4C9055EBF016821F00801C9
:100F20000160216C21B905E0080344D4216C09B1AA
:100F300020468847E16D202000FA01F23A4247D06E
:100F400020680368DB0643D5B26094F83530026848
:100F5000052B1ED122F016020260426922F08002A7
:100F60004261226C0AB9A26C1AB1026822F008022E
:100F700002603F208840B060002084F834000120E7
:100F800084F83500216D00295AD02046884701B0E9
:100F9000F0BD0168520312D4C90515D4016821F0CF
:100FA00010010160002084F83400012084F835002D
:100FB000E16B59B90CE0A16C0029B9D1BAE708037B
:100FC00002D4616C11B903E0E16B09B12046884796
:100FD000606DA8B3606DC0072ED00521A80A84F803
:100FE000351021680A6822F001020A60009A013275
:100FF000824200921AD80A68D20717D0009A0132AA
:101000008242009212D80A68D2070FD0009A0132A9
:10101000824200920AD80A68D20707D0009A0132A9
:101020008242009202D80A68D207DFD1002084F8F9
:101030003400012084F83500E16C09B1204688476E
:1010400001B0F0BD2DE9F041044600F095FB002C05
:1010500004BF0120BDE8F0810546002084F834007B
:10106000022084F835002168086820F0010008603B
:101070000868C00704D110E021680868C0070CD0D8
:1010800000F07AFB401B0528F6D903252023032016
:10109000636584F83550BDE8F08148F23F02086886
:1010A000D4E9013504F10C08CFF2100200EA020C79
:1010B00098E8C101D4E9072E43EA0C032B431843F7
:1010C000636A30433843042B40EA080040EA0200D8
:1010D00040EA0E021DD1D4E90BE042EA0E02BEF155
:1010E000000F40EA020008604869A26A20F003008D
:1010F00040EA020040F0040C11D0B8F5005F34D093
:10110000B8F1000F42D1022A43D0012A37D032B9B8
:101110003FE00A60486920F0070040EA030C6FF0E6
:101120000F0040F2FF32C1F814C00023012550FA2D
:1011300081F091434AF6AB22CAF6AA225F2888BF03
:101140000431A165A0FB0202100942F63962C0F623
:101150000102105C3F22E06502FA00F08860002086
:10116000636584F83550BDE8F081032AD7D801259E
:1011700040230120DFE802F0020D0203F0E7AEF1A8
:10118000C070B0FA80F0400938B9C8E7032A04D328
:10119000C5D1CEF300600028C1D001254023012035
:1011A000636584F83550BDE8F0810000B0B590F873
:1011B00034C0BCF1010F47D04FF0010CD0F858E01B
:1011C00080F834C090F835C0BCF1010F39D14FF030
:1011D000020C80F835C04FF0000CC0F854C0D0F8B5
:1011E00000C08468DCF80050402C25F48025CCF841
:1011F0000050CCF804300B4608BF1346CCF808303A
:1012000008BF0A46CCF80C20C16D3F2202FA01F15A
:10121000CEF80810DCF8001041F01601CCF80010F0
:10122000006C00281EBFDCF8000040F00800CCF87D
:101230000000DCF8000040F00100CCF800000020C5
:10124000B0BD002180F834100220B0BDB0B5044616
:1012500000F092FA054640F20400611CC1F2000061
:10126000007818BF044400BF00F086FA401BA0427B
:10127000FAD3B0BD2DE9F04381B040F27C38054689
:10128000C1F2000898F81800012802BF022001B03E
:10129000BDE8F0830120894688F818004CF25030F0
:1012A000FFF7B4F8002840F0A7804FF0FF3043F676
:1012B0001047C9F80000C4F20207286801280CD1C1
:1012C000696828693A6822F4407203293A6043D178
:1012D000396848F20402114345E0D5E90260304420
:1012E000864233D2F40000BF2869396821F4407186
:1012F0003960C1B2000203294FF4407138BF81B296
:1013000038680B2E40EA01003860386820F0F80099
:101310003860204688BF20303968084340F002001A
:101320003860386840F4803038604CF25030FFF755
:101330006DF83968002821F0FA01396062D1D5E9E9
:1013400002010136083408448642CDD3002057F804
:10135000101C89051CD433E03A68012914BF42F4FB
:10136000004142F0040139600002396880B208434C
:1013700040F4803038604CF25030FFF747F839685D
:1013800048F204029143396057F8101C890517D5BB
:1013900057F8101C21F4007147F8101C57F8101C66
:1013A00041F4006147F8101C57F8101C21F400614B
:1013B00047F8101C57F8101C41F4007147F8101C36
:1013C00057F8101C490517D557F8101C21F48061F7
:1013D00047F8101C57F8101C41F4805147F8101CB6
:1013E00057F8101C21F4805147F8101C57F8101CB6
:1013F00041F4806147F8101C002188F8181001B0F2
:10140000BDE8F083C9F8006057F8101C8905BFD407
:10141000D6E700002DE9F04381B040F27C35074665
:10142000C1F20005287E012802BF022001B0BDE8FC
:10143000F08301201E4690460C4628764CF2503030
:10144000FEF7E4FF20B10021297601B0BDE8F0836A
:1014500043F61049022FC4F2020915D0012F28D0FB
:10146000E7BBD9F8000020F44070C9F80000D9F8B3
:101470000000C9F80000D9F8000040F00100C9F8E8
:10148000000084F8008040E0D9F8000020F44070AB
:10149000C9F80000D9F8000040F40070C9F8000055
:1014A000D9F8000040F00100C9F80000C4F800803D
:1014B0002BE0D9F8000020F44070C9F80000D9F8FA
:1014C000000040F48070C9F80000D9F8000040F036
:1014D0000100C9F80000A4F8008016E0D9F8000067
:1014E00020F44070C9F80000D9F8000040F44070C2
:1014F000C9F80000D9F8000040F00100C9F8000068
:10150000C4F80080BFF36F8F66604CF25030FEF776
:101510007DFFD9F8001021F00101C9F80010002169
:10152000297601B0BDE8F08343F60440C4F202001E
:10153000C168B1F1FF3FC4BF0020704740F22311E2
:10154000C4F26751016048F6AB11CCF6EF5101606F
:10155000C068C00F70470000042818BF704741F6EC
:1015600000004FF48051C4F2020000F0F7B8000010
:1015700043F61441C4F201010A68024214BF086034
:101580007047FFF7E9BF00002DE9F04F82B042F24B
:1015900000430A224FF0010E00264FF00008C4F26B
:1015A0000203984200F13E4308BF092203F1FF7392
:1015B0004FEAB327092F4FF0000738BF4FEAB32295
:1015C00000920A680EFA08F912EA090F0FD100BF5B
:1015D0000236043708F10108202E04BF02B0BDE82E
:1015E000F08F0A680EFA08F912EA090FF0D0D1F864
:1015F00004C00CF0030AAAF10102012A16D8032242
:101600008468CD684FEA480BB2409443B5406FEA16
:10161000020E25438560CCF30015446805FA08F5F1
:1016200024EA0904254345600EE000BF0322BAF115
:10163000030FB34602FA06F26FEA020E04D1B34674
:101640004FF0030A21E000BFC2688C68BAF1020FB4
:1016500002EA0E0204FA0BF442EA0402C26014D158
:1016600007F01C020F2303FA02F56FF0030303EAED
:1016700058040444236AAB430D6905FA02F21A4385
:101680002262D1F804C00CF0030A03680AFA0BF2D4
:101690001CF4403F03EA0E034FF0010E42EA03023E
:1016A000026095D0002207F00C050F24019243F64A
:1016B0004402AC40C4F202021346126842F4804273
:1016C0001A601A6843F60043C4F2010302F4804230
:1016D0009C46019228F003021A44019B4FF60843EE
:1016E000CFF6FF739A46D358A343009C04FA05F53E
:1016F0002B4342F80A30DCF800204D6842EA090327
:10170000EC0358BF22EA0903CCF80030AC03DCF844
:10171000042042EA090358BF22EA0903CCF8043046
:10172000EC02DCF8082042EA090358BF22EA090368
:1017300043F60C42CCF80830AD02C4F20102144664
:10174000126842EA090358BF22EA090323603FE70F
:101750000069084018BF012070470000426902EA92
:101760000103914341EA034181617047002A08BFA8
:10177000090481617047000040F29C30C1F2000012
:101780000068704790F83D20202A1CBF0220704757
:10179000242280F83D200268136823F001031360BF
:1017A000536A23F010035362536A1943516211685C
:1017B00041F001011160202180F83D1000207047A8
:1017C00090F83D20202A1CBF02207047242289B2B5
:1017D00080F83D200268136823F0010313604FF680
:1017E000F073D2F824C003EA0C0319435162116864
:1017F00041F001011160202180F83D100020704768
:1018000070470000704700002DE9F04182B0D0F829
:1018100000C00446E04658F8043FC16A90F83E50C4
:1018200090F83D20402D01D0102D20D1DCF818601B
:10183000DCF81400C70763D1B1F12A4F00F07283BE
:10184000B1F52A0F00F06E8313F400714FF0010719
:1018500087EA512E18BF10F0080155D0606CC0B255
:10186000CCF81000606B002840F0048104E1206C8B
:1018700000280CBFDCF818600026DCF8140013F414
:10188000007518BF10F0020140F0A880002D18BFAD
:1018900010F0100140F00D8142F00801292940F0BC
:1018A0007581590540F1A08100F08401802940F044
:1018B0009B8194F83D00618D002900F03383616ABB
:1018C000292811F8012BCCF81020628DA2F1010219
:1018D00062856162618D08BF002940F02383D8F8DA
:1018E000000020F48060C8F8000021202063282038
:1018F00084F83D00204602B0BDE8F04100F094BD00
:10190000990534D44FF0010EBEF1000F35D110F01F
:10191000020132D094F83E10E26A206B94F83D3018
:10192000222B40F0BA804029236D08BF002B00F025
:10193000B480216D002940F078812169B1F5404FD4
:1019400040F0738100200190DCF814000190DCF875
:10195000180001900198DCF8000040F48070CCF889
:101960000000206D0130206502B0BDE8F081E06A22
:10197000B0F52A0F56D1012059E0D8F800107607AB
:1019800001F4006100F1DC80002940F0CB825905B0
:1019900040F1918100F04401402940F08C8194F89D
:1019A0003D00222840F0BE82608D0428C0F0C7822E
:1019B000DCF81000616A0870608D01386085606A2B
:1019C00001306062608D032840F0AC82206841687D
:1019D00021F48061416002B0BDE8F081206C0028F4
:1019E00018BFDCF8186094F83D0000F028002828A3
:1019F00040F0BE80D8F8000020F48060C8F80000F5
:101A000030064FF0180058BF0C20225A002084F8EE
:101A10003C00012020EA9601204602B0BDE8F041DA
:101A2000FFF7F0BEE06AB0F12A4F01D10820E06272
:101A300094F83E0040280CD1216D606C00F0FE004F
:101A4000002918BF40F00100CCF8100002B0BDE83A
:101A5000F0812069B0F5804F40F0D68094F83D00C9
:101A6000616C01F0FE01212818BF0131CCF8101083
:101A7000606B08B1C06B38B9A06B002800F05282CF
:101A8000C06B002800F04E82D8F8000040F40060DF
:101A9000C8F8000002B0BDE8F08100200190DCF839
:101AA00014000190DCF818000190019802B0BDE824
:101AB000F08194F83D50DCF8040020F4E060CCF8AC
:101AC000040000200190DCF814000190DCF8000014
:101AD00040F00100CCF800000198DCF8000020F490
:101AE0008060CCF80000DCF80400000540F15A8169
:101AF00045F008002A2840F03481A06B016849684D
:101B00006185618D00291EBF216C41F004012164B3
:101B1000D8F8001021F40061C8F80010FFF7ACF904
:101B2000012800F03F8143F66961A06BC0F6000117
:101B30000165FFF78FF9002800F03481A06B2FE1D9
:101B4000002940F0EF81590540F1D68000F0840172
:101B5000802940F0D18094F83D2094F83E10E06A4E
:101B6000238D002B00F0B481212A40F0D781DCE1E5
:101B700000200190DCF814100191DCF8181001919C
:101B8000019984F83C0002B0BDE8F081590571D597
:101B900000F0440140296DD194F83D00618D002989
:101BA00000F0C081DCF81010626A2A281170618D83
:101BB000A1F101016185616A01F101016162618D3B
:101BC00008BF002940F0AE812068416821F480619F
:101BD000416022202063282084F83D00204602B086
:101BE000BDE8F04100F01EBC002D18BF10F004004D
:101BF00000F09881608D002800F09481606A10F8F0
:101C0000011BCCF8101070E0206D002849D0206D29
:101C1000012840F08781606C062101EAD010F13084
:101C2000CCF8100002B0BDE8F081618D71B1618D1A
:101C3000012940F01381202A18BF082A40F00A82A7
:101C4000DCF8000020F48060CCF800000020019057
:101C5000DCF814000190DCF8180001900198DCF821
:101C6000000040F40070CCF800000020206502B0B5
:101C7000BDE8F081002D18BF10F0040000F0528183
:101C8000608D002800F04E81DCF81000616A087059
:101C9000606A01306062608D0138608502B0BDE825
:101CA000F081606C062101EAD010F030CCF8100011
:101CB00002B0BDE8F08100F00400012181EA90004B
:101CC00050EA0E0040F02E81E06A618D042940F058
:101CD000A281DCF8040020F48060CCF80400DCF879
:101CE0001000616A0870606A01306062608D0138BE
:101CF000608502B0BDE8F08100F00400012181EAB6
:101D0000900050EA0E0040F00D81212A40F09981A8
:101D1000E06A94F83D10212940F00481618D00298A
:101D20007FF46CAFD8F8001010F5803F21F4E0612B
:101D3000C8F8001018BF082840F02182DCF8000025
:101D4000202140F40070CCF800000020206384F8CB
:101D50003D1094F83E1084F83E00402940F0E481A4
:101D6000D6E0606B016849686185618D00291EBFFE
:101D7000216C41F004012164D8F8001021F40061C5
:101D8000C8F80010FFF778F801280BD043F6696116
:101D9000606BC0F600010165FFF75CF810B1606B85
:101DA000016D8847608D00B320684169490709D5F6
:101DB0000069616A0870616A206801316162618D41
:101DC000013961854169490608D50069616A087071
:101DD000606A01306062608D01386085608D002826
:101DE0001EBF206C40F004002064206C28B1204607
:101DF00002B0BDE8F04102F0C5B82A2D07D100209D
:101E00002063282084F83D00204600F00BFB94F866
:101E10003D00282810D100202021CFF6FF70E0627D
:101E20000020206384F83D1084F83E00204602B074
:101E3000BDE8F04100F0A8BA222D206B18BF22287F
:101E400070D100202021206384F83D1084F83E00EA
:101E5000204602B0BDE8F04100F0E4BA618DDCF844
:101E6000000002290AD1102A00F243810121142323
:101E70009140C0F20103194200F03B8140F48060C0
:101E8000CCF80000DCF80400000513D5501E1F2814
:101E900000F22A81012101FA00F048F28101C8F222
:101EA0000001084200F02081D8F8000040F4805082
:101EB000C8F8000000200190DCF814000190DCF864
:101EC0001800019001980020206502B0BDE8F08163
:101ED000212A23D1D8F8001010F5803F21F4E061C9
:101EE000C8F8001018BF082840F01381DCF8000083
:101EF000202140F40070CCF800000020206384F81A
:101F00003D1094F83E1084F83E00402940F00C81CA
:101F1000204602B0BDE8F04100F03EBA222A08BFD8
:101F2000402902D002B0BDE8F081608D002800F0A9
:101F3000A68094F83E00402800F086805EE6E16AC4
:101F40000128EFD80229EDD000204BF289510190F1
:101F500040F20C00C1F2F841C1F200000068C00874
:101F6000A0FB0101080A00EB8000019001980138F4
:101F700001900198002800F0DD80DCF80000800569
:101F800020D50198013801900198002800F0D280F6
:101F9000DCF80000800515D5019801380190019802
:101FA000002800F0C780DCF8000080050AD5019801
:101FB000013801900198002800F0BC80DCF8000096
:101FC0008005D3D4DCF8000020F48060CCF8000059
:101FD000DCF8040020F4E060CCF80400DCF8100029
:101FE000616A0870608D01386085202084F83D00AA
:101FF000606A01306062002094F83E1084F83E0070
:10200000402900F0E98012202063204602B0BDE89C
:10201000F04100F0BBB9618D032939D1D8F8001027
:10202000022821F48061C8F800103FF458AE04285B
:102030003FF455AEDCF8000020F48060CCF80000DE
:102040004DE6402D7FF46EAF204602B0BDE8F04172
:1020500002F056B812F5803F31D1DCF8000020F4D0
:102060008060CCF80000DCF8040000057FF5EEADE0
:10207000DCF8000020F48060CCF800001AE7D8F803
:10208000000020F48060C8F8000002B0BDE8F081D4
:10209000618D02297FF423AE01380F2800F273808E
:1020A000DFE800F0086871687171717171717171A8
:1020B00071717108DCF8000020F4806067E0012A8B
:1020C00002D012283FF4BCADDCF80000102AD1D8B1
:1020D000012191401422C0F201021142CAD040F401
:1020E0008060CCF80000E5E612F5803F7FF4E2AEB8
:1020F000DAE620F48060CCF80000DCF8000040F460
:102100000060CCF80000DCF8040000057FF5D2AEDA
:10211000BCE620283FF4EAAE11202063002084F8BA
:102120003E00202084F83D00204602B0BDE8F0418A
:1021300000F02EB9206C40F020002064DCF8040090
:1021400020F4E060CCF80400DCF81000616A08704C
:10215000608D01386085202084F83D00606A013080
:102160006062002084F83E00204602B0BDE8F041E5
:1021700000F03AB8DCF8000040F4806007E0202866
:102180003FF4DCADC8E7DCF8000040F40070CCF8A8
:102190000000DCF81000616A0870616A20684A1C5F
:1021A0006262628D013A628500694870616A2068E6
:1021B00001316162618D01396185416821F44071AD
:1021C0004160202084F83D00002094F83E1084F8FF
:1021D0003E0040297FF417AF2063204602B0BDE8DF
:1021E000F04100F0D7B8000070470000B0B5A8B3C8
:1021F000044690F83D0028B9002084F83C002046B1
:1022000000F0CCF8242084F83D002068016821F01B
:1022100001010160016841F400410160016821F49D
:102220000041016000F0A6FA48F2804140F6001239
:102230000023C0F21E01C0F23D0288424FF00001AF
:1022400038BF0121904248F2A16238BF012365687E
:10225000C0F20102954238BF0B460BB10120B0BD60
:102260004DF68361C4F21B31A0FB011221684B685B
:1022700023F03F0343EA92434B60930C0A6A22F037
:102280003F0C48F2A062C0F20102954213D85A1CDA
:1022900001384CF6FF7342EA0C020A626A00B0FB96
:1022A000F2F001306FF31F30042898BF0420CA6990
:1022B00022EA030C3FE04FF49672A0F1010E5A435C
:1022C00044F6D353C1F26203A2FB0323012202EBC3
:1022D00093124CF6FF7342EA0C020A62CA6922EAC0
:1022E000030CA3689BB1192004226843BEFBF0F0E5
:1022F000013062F31F30000512D09BB11920042277
:102300006843BEFBF0F0013062F31F3011E005EBD3
:102310004500BEFBF0F001306FF31F300005ECD13B
:10232000012008E005EB4500BEFBF0F001306FF343
:102330001F3040F4004040EA0C00C8610868D4E94E
:10234000072320F0C000104348F2FF321843086012
:1023500088689043D4E90323184310438860C86811
:10236000D4E9052320F0FF0010431843C860086833
:1023700040F00100086000202021206484F83D1016
:10238000206384F83E00B0BD704700007047000035
:10239000704700007047000070470000B0B586B07D
:1023A00000240594CDE90344CDE90144016845F6D4
:1023B0000000C4F20000814201D006B0B0BD43F677
:1023C0003005009400F5D630C4F20205296841F0CA
:1023D00002012960296801F002010091009904219D
:1023E00005910321049101210391122102914FF4DF
:1023F0004061019101A9FFF7C7F800940021002274
:10240000286940F480002861286900F48000009069
:102410000098212000F082F8212000F06FF806B02B
:10242000B0BD0000704700007047000040F204009B
:1024300040F29C31C1F20000C1F2000100780A684C
:10244000104408607047000080B543F60040C4F2B5
:102450000200016841F400710160016841F480618B
:102460000160016841F480710160032000F084F88C
:10247000002000F005F800F025F8002080BD0000E5
:1024800070B540F2040604464FF47A71C1F20006BA
:102490003078B1FBF0F040F20C01C1F200010968A4
:1024A000B1FBF0F000F062FB01250F2C08D838B921
:1024B0004FF0FF3021460022002500F02FF8746015
:1024C000284670BD82B043F6400100200190C4F25E
:1024D00002014A6842F480424A604A6802F480423B
:1024E0000192019A0090086840F0805008600868E6
:1024F00000F080500090009802B070470028B8BFEC
:10250000704700F01F010122400902FA01F14EF26A
:102510000012CEF2000242F82010704710B500F011
:102520000F034EF60C5E00F1604CB0F1FF3FA3F1DB
:102530000403CEF2000E734403F10C04C8BF0CF583
:102540006444DEF800004FF0FF3CC0F30220C31EDD
:1025500080F0070038BF0023042828BF04200CFAAD
:1025600000F021EA00000CFA03F1984022EA010190
:1025700008430001207010BD4EF60C514FF6FF03CA
:10258000CEF200010A681A4060F30A2242F080602D
:1025900040F0FD700860704770B582B000204026A2
:1025A00047F20405019043F64000C4F20E26C4F23F
:1025B0000005C4F20200016841F08051016000682A
:1025C00000F080500190019801203060FFF7D4F8AE
:1025D000044600BF2868C00306D4FFF7CDF8001BEF
:1025E000B0F57A7FF6D90EE001207060FFF7C4F8ED
:1025F000044600BF2868800308D4FFF7BDF8001B1D
:10260000B0F57A7FF6D9032002B070BD002002B089
:1026100070BD00002DE9F041002800F0A88043F6CD
:10262000080804460D46C4F20208D8F8F80300F082
:102630000F00884208D288F8F853D8F8F80300F061
:102640000F00A84240F093802068810717D541070A
:1026500042BFD8F8001041F4E051C8F8001001075B
:1026600042BFD8F8001041F46041C8F80010D8F813
:102670000010A26821F0F0011143C8F80010C00753
:1026800036D06068811E022907D258F8081C8901DB
:102690005CBF0120BDE8F0810DE0012807D158F8AA
:1026A000081C89035CBF0120BDE8F08103E058F8F5
:1026B000081C89075BD5D8F8001021F003010843F6
:1026C000C8F80000FFF758F8064641F2883707E0DF
:1026D000FFF752F8801BB84284BF0320BDE8F081A9
:1026E000D8F80000616800F00C00B0EB810FEFD16A
:1026F000D8F8F80300F00F00A84207D988F8F8537B
:10270000D8F8F80300F00F00A84230D12068410744
:1027100007D5D8F80010E26821F4E0511143C8F859
:102720000010000708D5D8F80000216920F46040A7
:1027300040EAC100C8F8000000F044F8D8F80010E2
:102740004BF22022C0F60002C1F30311515CC840D5
:1027500040F20C01C1F20001086040F20800C1F231
:1027600000000068FFF78CFE0020BDE8F08101202A
:10277000BDE8F08140F20C0043F608014BF2302234
:10278000C1F20000C4F20201C0F60002006809684C
:10279000C1F38221515CC8407047000040F20C0038
:1027A00043F608014BF23022C1F20000C4F20201EC
:1027B000C0F6000200680968C1F34231515CC840AC
:1027C0007047000010B543F60404C4F202046068C8
:1027D00000F00C0008280AD0042819BF42F200407B
:1027E000C0F2F40041F60030C0F2B70010BD22681C
:1027F00020680023400202F03F0241F60030C0F2A0
:10280000B7005CBF42F20040C0F2F4002168C1F39F
:102810008811A0FB0101FDF7E5FC21680222C1F34C
:10282000014102EB4101B0FBF1F010BD2DE9F04197
:1028300082B0002800F051810446007843F600067B
:10284000C4F20206C00744D0B06800F00C000428AF
:1028500005D1306880033CD56068D0BB3DE1B068ED
:1028600000F00C00082802D170684002F1D46768BB
:10287000B7F5803F06D03068B7F5A02F13D140F4EC
:1028800080203060306840F480303060FEF774FFA4
:10289000054600BF306880031BD4FEF76DFF401B68
:1028A0006428F7D9B6E020F480303060306820F436
:1028B00080203060FEF760FF0546002FEAD13068C7
:1028C000800306D5FEF758FF411B03206429F6D983
:1028D00049E1207880072FD5B06810F00C0F07D0A1
:1028E000B06800F00C0008280AD17068400207D4D4
:1028F0003068800719D5E068012840F0EE8014E0C8
:10290000E068002800F08A8000200121C4F24720FE
:102910000160FEF731FF05463068800705D4FEF7F9
:102920002BFF401B0228F7D974E03068216920F0A2
:10293000F80040EAC10030602078000723D56169C3
:102940000020C4F2472071B10121C0F8801EFEF7BB
:1029500013FF0546706F800715D4FEF70DFF401B6F
:102960000228F7D956E00021C0F8801EFEF704FFC8
:10297000054600BF706F800705D5FEF7FDFE401BC2
:102980000228F7D946E02078400779D5306C4FF01F
:102990000008C0000CD4CDF804804FF00108306C62
:1029A00040F080503064306C00F08050019001980D
:1029B00047F20007C4F200073868C0050FD4386832
:1029C00040F480703860FEF7D7FE05463868C005D1
:1029D00005D4FEF7D1FE401B0228F7D91AE0A768FC
:1029E000012F05D0306F052F2BD140F00400306748
:1029F000306F40F001003067FEF7BEFE054641F241
:102A0000883700BF306F800733D4FEF7B5FE401B18
:102A1000B842F7D9032002B0BDE8F08100200021C0
:102A2000C4F247200160FEF7A7FE05463068800724
:102A30007FF582AFFEF7A0FE411B03200229F5D9E6
:102A400091E020F001003067306F20F00400306723
:102A5000FEF792FE0546002FD1D141F28837306F44
:102A6000800706D5FEF788FE411B0320B942F6D940
:102A700079E0B8F1000F1EBF306C20F08050306458
:102A8000A769002F6ED0B06800F00C00082828D18C
:102A9000012F22D07068E16900F480028A421CD1C3
:102AA000216A00F03F028A4217D147F6C071626A7C
:102AB0000140B1EB821F10D1A16A4FF6FF72C9032A
:102AC000914300F44032A1F580318A4205D1E16A98
:102AD00000F07060B0EB016F44D0012002B0BDE89F
:102AE000F08140F200080020C4F24728C8F86000D6
:102AF000FEF742FE0546022F0AD100BF3068800172
:102B000010D5FEF739FE411B03200229F6D92AE031
:102B10003068800126D5FEF72FFE411B03200229D5
:102B2000F6D920E004F11C078FCF0843D90340EA0F
:102B300082104FF6FF72914340EA0760A1F58031A1
:102B4000084370600120C8F86000FEF715FE0446D7
:102B50003068800106D4FEF70FFE011B0320022916
:102B6000F6D900E0002002B0BDE8F081411E00204F
:102B7000B0EB116F1CBF012070474EF21002F02322
:102B8000CEF2000251604EF62351CEF200010B70DE
:102B90000721906011607047704700007047000087
:102BA00090F83C300222012B5DD010B580F83D201A
:102BB000012280F83C200268D2F804E0D2F808C074
:102BC0000C682EF070032343536041F2FF73C4F28C
:102BD00000039A42BDE810400FDC40F2FF73C4F2DC
:102BE00000039A421BDCB2F1804F31D040F2004327
:102BF000C4F200039A422BD02FE040F2FF33C4F21C
:102C000001039A4218DC41F60003C4F200039A4221
:102C10001ED00023C4F201039A4219D01DE040F6F1
:102C20000003C4F200039A4212D040F60043C4F2FB
:102C300000039A420CD010E044F20003C4F20103F6
:102C40009A4205D040F20043C4F201039A4204D1F3
:102C500049682CF08003194391600022012180F81B
:102C60003C2080F83D10104670470000002804BF4B
:102C70000120704710B5044690F83D0028B90020A7
:102C800084F83C00204600F01FF80220211D84F843
:102C90003D00206801F0B2FA012084F8460084F873
:102CA0003E0084F83F0084F8400084F8410084F836
:102CB000420084F8430084F8440084F8450084F816
:102CC0003D00002010BD000080B582B041F20041FF
:102CD0000068C4F20001884220D00021C4F2010142
:102CE00088421CBF02B080BD00200022019043F644
:102CF0004000C4F20200416841F00101416000213E
:102D0000406800F00100019001981920FFF706FCCF
:102D1000192002B0BDE88040FFF7F0BB0020002280
:102D2000009043F64000C4F20200016841F0200127
:102D300001600A21006800F0200000900098372010
:102D4000FFF7ECFB372002B0BDE88040FFF7D6BBB1
:102D500090F83D1001291CBF01207047022180F826
:102D60003D100068C16841F00101C16041F2FF718E
:102D7000C4F2000188420FDC40F2FF71C4F200018E
:102D800088421BDCB0F1804F31D040F20041C4F2E8
:102D9000000188422BD031E040F2FF31C4F2010142
:102DA000884218DC41F60001C4F2000188421ED0BE
:102DB0000021C4F20101884219D01FE040F6000151
:102DC000C4F20001884212D040F60041C4F2000172
:102DD00088420CD012E044F20001C4F201018842A2
:102DE00005D040F20041C4F20101884206D1816859
:102DF00001F00701062904BF00207047016841F077
:102E00000101016000207047016841F21113CA6896
:102E100022F00102CA600A6A1A4204D10A6A40F228
:102E200044431A4204D0012180F83D10002070472D
:102E30000A6822F001020A60012180F83D1000209A
:102E40007047000090F83C300222012B00F0C28055
:102E500080B580F83D20012280F83C204FF6777243
:102E6000D0F800C0DCF8083023EA0202CCF80820D1
:102E70000B684F2B28DC1F2B42DD202B43D0302B3F
:102E800041D0402B40F0A880D1F804E0C968DCF8BC
:102E90002030DCF8202022F00102CCF82020DCF8E1
:102EA000182022F0F00242EA0111CCF8181023F0A9
:102EB0000A0141EA0E01CCF82010DCF8081041F0BC
:102EC000470121F030017AE06F2B24DDB3F5005F7C
:102ED00044D0B3F5805F74D0702B7DD1D1E901234C
:102EE000C9681A4342EA0121DCF8082022F47F4233
:102EF0001143CCF80810DCF8081041F077015EE0CF
:102F00000BB1102B68D1DCF8081021F070011943C7
:102F100041F0070153E0502B32D0602B5CD14A685E
:102F2000C968DCF8203023F01003CCF82030DCF83E
:102F3000183023F4704343EA0131DCF82030CCF838
:102F4000181023F0A00141EA0211CCF82010DCF89F
:102F5000081041F0670121F0100130E0D1E90123B0
:102F6000C9681A4342EA0121DCF8082022F47F42B2
:102F70001143CCF80810DCF8081041F480411EE041
:102F8000D1F804E0C968DCF82030DCF8202022F019
:102F90000102CCF82020DCF8182022F0F00242EAEE
:102FA0000111CCF8181023F00A0141EA0E01CCF807
:102FB0002010DCF8081041F0570121F02001CCF876
:102FC00008100022002180F83C10012180F83D10FB
:102FD000BDE88040104670470122F3E770470000CB
:102FE00010B5044600680169890744BFC1685FEAFB
:102FF00081713BD40169490744BFC1685FEA4171EF
:1030000050D40169090744BFC1685FEA017166D401
:103010000169C90644BFC1685FEAC1617CD4016926
:10302000C9071CBFC1685FEAC17140F093800169A4
:10303000090644BFC1685FEA016100F19A80016935
:10304000490644BFC1685FEA416100F1A18001699E
:10305000890646BFC1685FEA816110BD6FF020013B
:1030600001612046BDE81040FFF798BD6FF00201F6
:103070000161012121778069800703D02046FFF795
:10308000ADFF05E0204600F08BF8204600F08AF8FE
:103090000020207720680169490744BFC1685FEAC2
:1030A0004171AED56FF00401016102212177806981
:1030B00010F4407F03D02046FFF790FF05E0204644
:1030C00000F06EF8204600F06DF8002020772068B0
:1030D0000169090744BFC1685FEA017198D56FF0C3
:1030E0000801016104212177C069800703D02046CF
:1030F000FFF774FF05E0204600F052F8204600F08C
:1031000051F80020207720680169C90644BFC168D2
:103110005FEAC1617FF583AF6FF0100101610821A3
:103120002177C06910F4407F03D02046FFF756FF97
:1031300005E0204600F034F8204600F033F8002087
:10314000207720680169C9071CBFC1685FEAC171A7
:103150003FF46DAF6FF001010161204600F024F8EB
:1031600020680169090644BFC1685FEA01617FF513
:1031700066AF6FF0800101612046FFF70DFD20680A
:103180000169490644BFC1685FEA41617FF55FAFED
:103190006FF040010161204600F03CF9206856E7DD
:1031A00070470000704700002DE9F04F83B00168C0
:1031B00041F20040C4F20000814240F0158100F568
:1031C000FA304021FEF7CAFA40F29C06C1F200062E
:1031D000B088410713D401076ED4810600F107813E
:1031E000410600F10A81C10500F10D81000640F1A0
:1031F000FB80112003B0BDE8F04F06F03FBF49F25D
:103200007C10C2F20100017A112909D140F220029A
:103210000021C1F20002C6E90D115173CC210172E7
:1032200044F2200B45F24C10C2F2010B5BF8000097
:1032300000284ED040F2200500274FF0020845F24A
:1032400050190BF5225AC1F2000500BF0BEB070025
:1032500045F2021145F201120DF10A03415C825C54
:103260002878CDE9008841EA0221022289B203F0E0
:10327000B5FA5BF80940D6E90D109DF80A2002372F
:1032800001F10D03A04227BF0AF803200AEB010455
:103290000BF803200BEB010402319DF80B30716336
:1032A00099186A7BA3731144697345F24C115BF85A
:1032B00001108F42CAD30DE040F22000C1F200009D
:1032C000007A002840F0908003B0BDE8F04F02F093
:1032D0004FBDB06B45F2501101305BF80110B06387
:1032E000884234D145F2441100205BF8011070632C
:1032F000112979D140F220019BF808309BF8097020
:10330000C1F200014A7B48739BF806009BF8071046
:10331000104408449BF80A101844384408449BF8A9
:103320000B1008449BF80C10084459468BF8040015
:1033300045F258103BF80000063082B240F2F4200B
:10334000C1F2000000F014FD03B0BDE8F08F45F2BB
:1033500054115BF80110884246D1002045F2441117
:10336000C6E90D005BF8011011293DD140F22003A0
:1033700042F6860242F68701C1F200031BF80220E2
:103380001BF801105F7B587345F258103A44114402
:1033900042F688021BF80220114442F689021BF80B
:1033A0000220114442F68A021BF80220114442F620
:1033B0008B021BF80220114442F68C021BF80220FB
:1033C000114442F684020BF802100BF522513BF82F
:1033D0000000063082B240F2F420C1F2000000F09A
:1033E000C7FC03B0BDE8F08F03B0BDE8F08F11203B
:1033F00003B0BDE8F04F02F0A5BF112003B0BDE857
:10340000F04F07F0B7B8112003B0BDE8F04F07F058
:1034100035BA000070470000704700007047000098
:1034200010B582B0D0F800E00446DEF80010DEF8F7
:103430000C20DEF814305FEA017C00F0C38002F457
:10344000907003F00103C01800F0FF80C8071FBF91
:1034500012F48070206C40F001002064480705D50C
:10346000002B1EBF206C40F002002064880705D5A9
:10347000002B1EBF206C40F004002064BCF1000F44
:1034800007D502F02000C0181EBF206C40F00800D5
:103490002064206C002800F0748202EA010080069B
:1034A00004D5204601F074F8D4F800E0DEF81400EA
:1034B000216C00F0400001F00801401800F0A581E7
:1034C0005EE8030F03E000BF206850E8030F2168A7
:1034D00020F4907041E80302E2B1206850E8030F45
:1034E000216820F4907041E803029AB1206850E806
:1034F000030F216820F4907041E8030252B1206864
:1035000050E8030F216820F4907041E80302002A7C
:10351000DAD100BF206850E8050F216820F00100D3
:1035200041E80502DAB1206850E8050F216820F073
:10353000010041E8050292B1206850E8050F2168BA
:1035400020F0010041E805024AB1206850E8050F6B
:10355000216820F0010041E80502002ADAD1206B41
:10356000012824D1206850E8030F216820F01000C2
:1035700041E80302DAB1206850E8030F216820F027
:10358000100041E8030292B1206850E8030F21685F
:1035900020F0100041E803024AB1206850E8030F10
:1035A000216820F0100041E80302002ADAD120202F
:1035B00084F83E000020206320684169490640F1FC
:1035C0001E810AE011408A0640D5204602B0BDE8BF
:1035D000104000F0DDBF00BF206850E8050F2168F3
:1035E00020F0400041E80502DAB1206850E8050FFC
:1035F000216820F0400041E8050292B1206850E8BF
:10360000050F216820F0400041E805024AB120681A
:1036100050E8050F216820F0400041E80502002A2B
:10362000DAD1A06B002800F0EA8044F24931C0F6FC
:1036300000010165FDF70EFC002800F0A281A06BDF
:10364000016D02B0BDE8104008471140226BC8066A
:103650001CD5012A1AD100200190DEF8000001904B
:10366000DEF8040001900198DEF81400400600F135
:103670009D80E18DA28DE08D00281CBF511A5FEA6C
:10368000014000F07E815EE8030F17E0080600F1BC
:10369000A280480640F17581DEF80C0020F0400061
:1036A000CEF80C00202084F83D00204602B0BDE892
:1036B000104000F0CDBB206850E8030F226820F4D2
:1036C000907042E80303DBB1206850E8030F2268E2
:1036D00020F4907042E8030393B1206850E8030F90
:1036E000226820F4907042E803034BB1206850E850
:1036F000030F226820F4907042E80303002BDAD114
:10370000206850E8050F226820F0010042E8050318
:10371000DBB1206850E8050F226820F0010042E884
:10372000050393B1206850E8050F226820F00100DE
:1037300042E805034BB1206850E8050F226820F0ED
:10374000010042E80503002BDAD1202084F83E0076
:1037500000202063206850E8030F226820F010004A
:1037600042E80303DBB1206850E8030F226820F031
:10377000100042E8030393B1206850E8030F226869
:1037800020F0100042E803034BB1206850E8030F1B
:10379000226820F0100042E80303002BDAD189B23E
:1037A000204602B0BDE81040FFF736BEA26B10689D
:1037B000436899B2002900F0E480B4F82CC0614558
:1037C00080F0DF80E385D069B0F5807F00F0C280B3
:1037D0005EE8030F23E094F83D00212840F0D180FB
:1037E000A068B0F5805F03D12069002800F0BC809C
:1037F000206A411C21620078CEF80400BCE020461B
:1038000002B0BDE81040FFF709BE2046FFF706FEF4
:103810000020206402B010BD206850E8030F21682A
:1038200020F4807041E80302DAB1206850E8030F09
:10383000216820F4807041E8030292B1206850E8CA
:10384000030F216820F4807041E803024AB1206828
:1038500050E8030F216820F4807041E80302002A39
:10386000DAD1206850E8050F216820F0010041E816
:103870000502DAB1206850E8050F216820F0010048
:1038800041E8050292B1206850E8050F216820F058
:10389000010041E805024AB1206850E8050F21689F
:1038A00020F0010041E80502002ADAD1206850E842
:1038B000050F216820F0400041E80502DAB12068D8
:1038C00050E8050F216820F0400041E8050292B160
:1038D000206850E8050F216820F0400041E805020B
:1038E0004AB1206850E8050F216820F0400041E807
:1038F0000502002ADAD1202084F83E00002020634F
:10390000206850E8030F216820F0100041E803020E
:10391000DAB1206850E8030F216820F0100041E878
:10392000030292B1206850E8030F216820F01000D4
:1039300041E803024AB1206850E8030F216820F0F3
:10394000100041E80302002ADAD1A06BFDF738FA33
:10395000B4F82CC0E08DACEB000081B2204602B080
:10396000BDE81040FFF758BD206A30F8021B6FF326
:103970005F21CEF804102062E08C0138E08400045E
:1039800001D002B010BDDEF80C0020F08000CEF8AF
:103990000C00DEF80C0040F04000CEF80C0002B045
:1039A00010BD0000002804BF0120704710B5044678
:1039B00090F83D0028B9002084F83C00204600F033
:1039C00021F8242084F83D002068C16821F40051CA
:1039D000C160204600F058FE2068016921F4904142
:1039E0000161416921F02A014161C16841F400513E
:1039F000C16000202021206484F83D1084F83E102E
:103A000010BD00002DE9F04F87B0002641F2000103
:103A100004460696CDE90466CDE90266C4F20101CA
:103A20000068884253D044F60041C4F20001884245
:103A300040F0C38043F630000026002402AD4FF072
:103A400008084FF0030902270196C4F20200C4F2ED
:103A50000204016941F400210161016901F40021BE
:103A6000019101990196016841F00101016001682D
:103A700001F00101019101990196016841F00401F1
:103A800001602946006800F0040001900198CDF81B
:103A90001880CDE90469CDE902772046FDF774FD71
:103AA0004FF48060CDE90598CDE903762946029070
:103AB00004F50060FDF768FD342000210022FEF7C8
:103AC0002DFD3420FEF71AFD07B0BDE8F08F43F658
:103AD000300001960327C4F20200416941F0100151
:103AE0004161416901F0100101910199019601685C
:103AF00041F00101016002A9006800F0010001909D
:103B00000198072006900220CDE9046703904FF446
:103B1000C06002900020C4F20200FDF735FD40F2C3
:103B2000501546F240484FF004094FF4003B4FF463
:103B300080604FF0006AC1F20005C4F20208C5E9D6
:103B400008B9C5E90A762E63C5E9008AC5E90266A7
:103B5000C5E904062846C5E90666FDF773FA00289C
:103B600018BFFCF751FC40F2B0160020402108F1CC
:103B70007802A563C1F20006C6E908B9C6E90A7071
:103B80003063C6E9002AC6E902104FF48061C6E935
:103B90000410C6E906003046AC63FDF753FA00286E
:103BA00018BFFCF731FC2520002100226663B463B6
:103BB000FEF7B4FC2520FEF7A1FC07B0BDE8F08FAE
:103BC000034690F83E0020280AD100294FF001005A
:103BD00018BF002A00D1704793F83C00012801D19A
:103BE0000220704700201863DA8518649A8599626C
:103BF000222183F83C0083F83E101968CA6842F419
:103C00008072CA604A6942F001024A61CA6842F0A1
:103C10002002CA60704700002DE9F04140F29C0884
:103C200049F27C144AF22102C1F20008C2F20104F6
:103C3000D8F82010A25C481C6254C8F82000D8F8BC
:103C4000241002290BD001291CD0002940F08480C7
:103C50002078AE2824D10120C8F824007CE0D8F8D0
:103C60002810884278D14AF2A4102158E1B14A1EA6
:103C700001F0030C032A1CD200220021BCF1000F2A
:103C80002CD139E0062867D1A078E17841EA0020FC
:103C90004AF2A411605002210630C8E909105BE025
:103CA0000020C8F8200057E000212079814226D06A
:103CB00033E0A1EB0C030022002100BFA018043266
:103CC0008579C679077A407A934229443144394448
:103CD0000844C1B2F2D1BCF1000F0DD02244BCF1B6
:103CE000010F9379194406D0D079BCF1020F014439
:103CF0001CBF107A0144C9B2207981420DD14AF229
:103D0000230160544AF22201607960544AF2AC10F7
:103D1000215841F0010121501BE0E12021460922F8
:103D200020724FF46C40E080AE2020704FF4407061
:103D30006080CD2020714AF22000205C60704AF241
:103D40002200205C607140F2F420C1F2000000F01B
:103D50000FF80020C8E908004AF2210001222118CA
:103D600040F2F420C1F20000BDE8F041FFF728BFA7
:103D7000B0B5044690F83D00202806D141B1134665
:103D800032B194F83C00012805D102252846B0BD87
:103D900001252846B0BD00250120E38444F25532B8
:103DA00044F2895C2564A384216284F83C002120CC
:103DB000C0F60002C0F6000C84F83D00606BC0E95C
:103DC000132544F2D942C0F60002C0E90F2C226844
:103DD0000432FDF7EBF920686FF0400140F8141B46
:103DE00084F83C5050E8000F216840F0800041E822
:103DF00005025AB3002500BF206850E8050F21686E
:103E000040F0800041E80502FAB1206850E8050F53
:103E1000216840F0800041E805029AB1206850E82E
:103E2000050F216840F0800041E8050252B120688A
:103E300050E8050F216840F0800041E80502002AA3
:103E4000DAD103E000252846B0BD00252846B0BDE4
:103E50007047000070470000FEE7000040F21020AD
:103E6000C1F20000FDF7D0BC10B582B000214BF2CA
:103E70008952019140F20C01C1F2F842806BC1F20B
:103E8000000190F83DC00968C908A1FB0212110A9F
:103E9000232251430191019911B3019901390191F3
:103EA0000168096889051FD50199C9B101990139CE
:103EB000019101680968890516D5019981B10199B7
:103EC000013901910168096889050DD5019939B158
:103ED000019901390191016809688905DBD403E082
:103EE000016C41F020010164446B4FF0000E002C86
:103EF0001CBF0021E163816B00291CBF0022CA6343
:103F00000268002C136823F480631360A0F82AE091
:103F100018BFC4F850E000291CBF00230B651168CE
:103F200021F00101116090F83D1060290AD1202193
:103F300080F83D10002180F83E100164FDF760FC20
:103F400002B010BD0CF02801282910D1116841F0F1
:103F500001011160116841F4806111600021016369
:103F6000282180F83D10FEF73FF902B010BD202156
:103F700080F83D10002180F83E10FEF735F902B0C0
:103F800010BD000010B5044690F83D1090F83E00BA
:103F9000402801D0102813D1222911D120680268AD
:103FA00022F4006202604268602941D012F400618C
:103FB0003ED1202184F83D10002184F83E1037E0E6
:103FC00001F0280028282FD100202063282084F821
:103FD0003D002068416809052FD5416821F4006142
:103FE0004160606B90F83510012944D143F6696156
:103FF000A06BC0F600010165FCF72CFF00284DD036
:1040000020684169490606D50069616A0870616ADD
:10401000206801316162016821F001010160202006
:1040200084F83D00A06B37E0206842686029BDD16C
:104030000021216341680905CFD494F83D1060291F
:104040004ED1202184F83D100021216441694906A8
:1040500006D50069616A0870616A20680131616291
:10406000016821F0010101602046FDF7C9FB206CC9
:10407000000716D11AE043F66961C0F60001016538
:10408000FCF7E8FE50B12068016821F001010160F1
:10409000202084F83D00606B016D8847206C00078C
:1040A00004D02068416821F4E061416094F83D103B
:1040B000206C282918BF10BD10F004000FD000207C
:1040C0002021CFF6FF70E0620020206384F83D10CD
:1040D00084F83E002046BDE81040FEF755B910BDFB
:1040E0004169490605D50069616A0870606A013056
:1040F00060622046FEF778F8206C0007D1D1D5E742
:1041000090F83D10026D52B1026D012A12D1016882
:10411000826CD2B20A61016D013101657047C26CD7
:10412000816C012A15D10268C9B21161016D023199
:1041300001657047026D022A18BF7047222910D10D
:1041400001680A6842F480720A60016D01310165FC
:1041500070470268C1F307211161016D01310165EA
:104160007047428D21290AD14AB1426A016812F88A
:10417000013B0B614262418D013941857047212924
:10418000428D08BF002A00D0704701684A6822F4B7
:10419000E0624A600A6842F400720A60002120224C
:1041A000016380F83D2080F83E10FEF7F5B800006E
:1041B000FEE70000FEE700007047000070470000C7
:1041C000FEF734B94EF68850CEF20000016841F493
:1041D000700101607047000040F26420C1F20000ED
:1041E000FEF7FEBE40F2E000C1F20000FCF71CBD8D
:1041F00040F2AC20C1F20000FEF7F2BE40F6FF3CF8
:104200000268C4F2000C604526DCB0F1804F34D067
:1042100040F20043C4F2000398422ED040F600035F
:10422000C4F20003984228D041F6FF73C4F20003A1
:1042300098422CDC604542DCB0F1804F64D040F203
:104240000043C4F2000398425ED040F60003C4F27B
:104250000003984258D05BE040F60043C4F20003EC
:1042600098420AD040F20043C4F20103984204D0BD
:104270000023C4F201039842D6D14B6822F07002A9
:104280001A4341F6FF73C4F200039842D2DD43F6AD
:10429000FF73C4F20103984224DC42F20003C4F22B
:1042A0000003984230D00023C4F2010398422BD07F
:1042B00040F20043C4F20103984225D028E040F6C2
:1042C0000043C4F2000398421ED041F60003C4F23A
:1042D0000003984218D041F60043C4F2000398420C
:1042E00012D015E044F20003C4F2010398420BD04F
:1042F00044F60003C4F20103984205D044F200439F
:10430000C4F20103984203D1CB6822F440721A43ED
:104310004B6922F080021A4340F200430260C4F26B
:1043200001038A68C2620A68826240F480629A422B
:1043300004BF0969016301214161704740F23830CF
:10434000C1F20000FFF76CB8806B0021C185C18409
:10435000FFF764B8806B01684A6990F83D30212B03
:104360002FD112F080022CD00022C28401E000BFC5
:10437000016851E8031F026821F0C00142E80313FD
:10438000DBB1016851E8031F026821F0C00142E877
:10439000031393B1016851E8031F026821F0C001C3
:1043A00042E803134BB1016851E8031F026821F092
:1043B000C00142E80313002BDAD1202180F83D1020
:1043C00001684A6990F83E30222B40F07F8012F05D
:1043D00040027BD00022C28501E000BF016851E8A5
:1043E000031F026821F4907142E80313E3B10168EE
:1043F00051E8031F026821F4907142E803139BB156
:10440000016851E8031F026821F4907142E8031328
:1044100053B1016851E8031F026821F4907142E82A
:104420000313002BDAD100BF016851E8051F0268B1
:1044300021F0010142E80513DBB1016851E8051FD5
:10444000026821F0010142E8051393B1016851E8C7
:10445000051F026821F0010142E805134BB1016814
:1044600051E8051F026821F0010142E80513002B05
:10447000DAD1016B012924D1016851E8031F0268D8
:1044800021F0100142E80313DBB1016851E8031F7A
:10449000026821F0100142E8031393B1016851E86A
:1044A000031F026821F0100142E803134BB10168B9
:1044B00051E8031F026821F0100142E80313002BAA
:1044C000DAD1202180F83E1000210163016C41F017
:1044D00010010164FEF7A2BF0168806B0968C9057D
:1044E00048BFFFF7B5BC0021C18400BF016851E897
:1044F000051F026821F0800142E80513E3B101685D
:1045000051E8051F026821F0800142E805139BB1C4
:10451000016851E8051F026821F0800142E8051397
:1045200053B1016851E8051F026821F0800142E89B
:104530000513002BDAD100BF016851E8031F0268A0
:1045400041F0400142E80313EBB1016851E8031F59
:10455000026841F0400142E80313A3B1016851E849
:10456000031F026841F0400142E80313002B08BF1B
:104570007047016851E8031F026841F0400142E8BA
:104580000313002BD8D17047806BFFF763BC00008A
:1045900090F83E10222918BF70478368B3F5805FFA
:1045A00005D10169B1B100F128010A680BE00146AB
:1045B000002B51F8282F01D1036923B103685B68F0
:1045C00003F07F0301E003685B6813700A6801323F
:1045D0000A6007E00168826A49686FF35F2122F888
:1045E000021B8262C18D0139C185090400D0704768
:1045F0000168CA6822F02002CA60CA6822F4807288
:10460000CA604A6922F001024A61202280F83E20F5
:10461000026B012A18BFFFF7FFBA0022026300BF36
:1046200051E8031F026821F0100142E803130168FA
:10463000DBB151E8031F026821F0100142E80313C7
:10464000016893B151E8031F026821F0100142E8AC
:10465000031301684BB151E8031F026821F01001F8
:1046600042E803130168002BDAD10A68D20608D5A4
:1046700081B0002200920A68009249680091009976
:1046800001B0818DFEF7C8BEB0B50446006849F29E
:104690000C650169E26821F4405111430161D4F8CD
:1046A00008C0D4E90423D4F81CE0C16842EA0C0233
:1046B000A9431A4342EA0E021143C1604169A2694B
:1046C00021F440711143416141F2004140F48060A6
:1046D000C4F20101884202D1FEF760F801E0FEF762
:1046E00049F8E26919216368A0FB0101B2F5004FA6
:1046F0001FD15A00DB0FFBF775FD48F21F51C5F2C1
:10470000EB11A0FB01235A096FF0630302FB0300C6
:10471000322303EBC000A0FB01014FF4F87000EA64
:104720001110C1F3421100EB0210084321688860A8
:10473000B0BD9A009B0FFBF755FD48F21F51C5F223
:10474000EB11A0FB01235A096FF0630302FB030086
:10475000322303EB0010A0FB0101F02000EA51100E
:10476000C1F3431100EB0210084321688860B0BD1B
:1047700040F2F420C1F20000FEF752BEFEE7000056
:10478000008800BA000C70479FED221A9FED222A84
:1047900020EE010AB5EE001A30EE010ABDEEC01A95
:1047A00011EE100AB5EE400AF1EE10FAB8BF01386A
:1047B00001EE100AB8EEC11A30EE410A20EE020AEC
:1047C000BDEEC01A9FED152A11EE100A002130EE41
:1047D000021AB1EB502F42F644611CBF0020B0EE2C
:1047E000410AC0F6010101EE100A01EB8001B8EEAA
:1047F000411A30EE410A91ED001A91ED012AB7EE0F
:10480000003A33EE403A23EE011A20EE020A31EE6E
:10481000000A704783F9223E00000044000000C4F3
:104820009FED201A9FED202A20EE010ABDEEC01A4E
:1048300011EE100AB5EE400AF1EE10FAB8BF0138D9
:1048400001EE100AB8EEC11A30EE410A20EE020A5B
:10485000BDEEC01A9FED152A11EE100A002130EEB0
:10486000021AB1EB502F42F644611CBF0020B0EE9B
:10487000410AC0F6010101EE100A01EB8001B8EE19
:10488000411A30EE410A91ED001A91ED012AB7EE7E
:10489000003A33EE403A23EE011A20EE020A31EEDE
:1048A000000A704783F9223E00000044000000C463
:1048B0002DE9F04F83B0B62002AD142601247E21ED
:1048C00000224FF000098DF8080069202B46CDE941
:1048D000004602F099FC0520FCF7B8FC6920002195
:1048E00000222B46CDE9004602F08EFC9DF8080020
:1048F000272865D10DF109084FF0020A69207C21B3
:10490000002243468DF809A0CDE9004602F07CFC68
:104910000520FCF79BFC69205921002243468DF8B5
:104920000990CDE9004602F06FFC0520FCF78EFCF3
:104930004DF211650DF10A084FF0400B00240027DD
:10494000C0F6000578098DF80A905B2100224346E5
:104950008DF80B006920CDE900A602F055FC05207A
:10496000FCF774FC2B1969205E210022CDE900B60A
:1049700002F04AFC0520FCF769FC40344037B4F5EE
:10498000005FDFD30DF109040126142769205921A6
:10499000002223468DF80960CDE9006702F034FC5F
:1049A0009620FCF753FC6920212100222346CDE903
:1049B000006702F029FC9DF80900C00704D1022419
:1049C000204603B0BDE8F08F062002AD7D21002215
:1049D00000248DF8080069202B46CDE9006702F01D
:1049E00013FC5020FCF732FCED20422100222B4624
:1049F0008DF808006920CDE9006702F005FC05206C
:104A0000FCF724FC12206B2100222B468DF80800B5
:104A10006920CDE9006702F0F7FB0520FCF716FCE2
:104A20000420432100222B468DF808006920CDE99F
:104A3000006702F0E9FB0520FCF708FC204603B004
:104A4000BDE8F08F2DE9F04F85B0B6200DF10E05D1
:104A50004FF00008142701247E2100228DF80E005B
:104A600069202B46ADF80C80CDE9004702F0CCFB65
:104A70000520FCF7EBFB6920002100222B46CDE945
:104A8000004702F0C1FB9DF80E00272840F031815D
:104A90000DF10E0369207C2100228DF80E80CDE9F6
:104AA000004702F0B1FB0120FCF7D0FB0DF10F0530
:104AB00069207C2100228DF80F80CDE900472B462C
:104AC00002F0A2FB0520FCF7C1FB6920592100225E
:104AD0002B468DF80F80CDE9004702F095FB0520AD
:104AE000FCF7B4FB4FF2116B4FF002090DF1100A05
:104AF0004FF4807600240025C0F6000B68098DF87D
:104B000010805B21002253468DF811006920CDE909
:104B1000009702F079FB0520FCF798FB0BEB0403F0
:104B200069205E210022CDE9006702F06DFB0520BF
:104B3000FCF78CFB04F5807405F58075B4F5C05F57
:104B4000DCD34FF4C056142702240DF1120841F6AD
:104B500028094FF4C05500BF70095B21002243466D
:104B60008DF81300C5F343008DF812006920CDE9DC
:104B7000004702F049FB0520FCF768FB0BEB06033E
:104B800069205E210022CDE9004702F03DFB0520AF
:104B9000FCF75CFB023602354E45DDD30DF10F0408
:104BA000012614276920592100224FF000082346CE
:104BB0008DF80F60CDE9006702F026FB9620FCF728
:104BC00045FB6920212100222346CDE9006702F040
:104BD0001BFB9DF80F000224C00700F08A8006200E
:104BE0000DF10E057D2100228DF80E0069202B4667
:104BF000CDE9006702F008FB5020FCF727FBAC2052
:104C0000402100222B468DF80E006920CDE9006777
:104C100002F0FAFA0120FCF719FB69204121002279
:104C20002B468DF80E40CDE9006702F0EDFA012029
:104C3000FCF70CFBEC20422100222B468DF80E00E5
:104C40006920CDE9006702F0DFFA0520FCF7FEFAE3
:104C50006920432100222B468DF80E80CDE90067A4
:104C600002F0D2FA0520FCF7F1FA6920682100224F
:104C70002B468DF80E80CDE9006702F0C5FA0520BD
:104C8000FCF7E4FA69202F2100222B468DF80E4014
:104C9000CDE9006702F0B8FA0520FCF7D7FAC12089
:104CA00003AB36210022ADF80C006920CDE90047A6
:104CB00002F0AAFA0520FCF7C9FA12206B210022A3
:104CC0002B468DF80E006920CDE9006702F09CFAB2
:104CD0000520FCF7BBFA6920432100222B468DF802
:104CE0000E80CDE9006702F08FFA0520FCF7AEFADE
:104CF0000024204605B0BDE8F08F00002DE9F04FFC
:104D000085B0B62004AD4FF000084FF0140A01241E
:104D10007E2100228DF8100069202B46ADF80E8010
:104D2000CDE9004A02F070FA0520FCF78FFA6920FD
:104D3000002100222B46CDE9004A02F065FA9DF8D9
:104D40001000A02840F0F68004AB69207C210022EE
:104D50008DF81080CDE9004A02F056FA0120FCF7E8
:104D600075FA0DF1110569207C2100228DF8118062
:104D7000CDE9004A2B4602F047FA0520FCF766FA17
:104D80006920592100222B468DF81180CDE9004A77
:104D900002F03AFA0520FCF759FA40F639654FF06F
:104DA00002090DF1120B4FF4807600270024C0F6A3
:104DB000010500BF60098DF812805B2100225B466F
:104DC0008DF813006920CDE9009A02F01DFA052044
:104DD000FCF73CFAEB1969205E210022CDE9006A5C
:104DE00002F012FA0520FCF731FA07F5807704F596
:104DF0008074B7F5005FDDD30DF11104012614278F
:104E00006920592100224FF0000823468DF81160D7
:104E1000CDE9006702F0F8F99620FCF717FA69204F
:104E2000212100222346CDE9006702F0EDF99DF82B
:104E300011000224C0077DD0062004AD7D21002290
:104E40008DF8100069202B46CDE9006702F0DCF9EF
:104E50005020FCF7FBF9AC20402100222B468DF8B6
:104E600010006920CDE9006702F0CEF90520FCF7BB
:104E7000EDF96920412100222B468DF81040CDE943
:104E8000006702F0C1F90120FCF7E0F9EC204221B3
:104E900000222B468DF810006920CDE9006702F052
:104EA000B3F90520FCF7D2F96920432100222B46F3
:104EB0008DF81080CDE9006702F0A6F90520FCF717
:104EC000C5F96920682100222B468DF81080CDE9B4
:104ED000006702F099F90520FCF7B8F904202F21AA
:104EE00000222B468DF810006920CDE9006702F002
:104EF0008BF90520FCF7AAF9C1200DF10E0336212C
:104F00000022ADF80E006920CDE9004702F07CF9DF
:104F10000520FCF79BF912206B2100222B468DF80F
:104F200010006920CDE9006702F06EF90520FCF75A
:104F30008DF90024204605B0BDE8F08F70B582B031
:104F4000FCF7F2FA40F2F40000220221C1F2000064
:104F500002601622C0E90221016101A9FCF78AF969
:104F600043F6004000244BF2382642F22145C4F2B9
:104F70000200C0F61C04C0F60006016821F480613E
:104F80000160016821F400710160016841F4805101
:104F90000160016821F480510160016841F4006101
:104FA0000160016821F400610160016841F4007151
:104FB0000160016841F48061016000BF16F8012BB7
:104FC000002021460023FCF725FA002808BF013401
:104FD000013DF3D14FF4FA70FCF738F9002002B02C
:104FE00070BD00002DE9F04F81B02DED0C8BACB001
:104FF00049F27C1040F2200802230DF1AE06C2F205
:105000000100C1F20008817E98F8012090F8274045
:10501000B0F81F5090F826B090F825A0B0F80B908B
:105020001E91417E1D91417D2291817D2191C17D05
:105030002091017E1F91B0F811101C91B0F813104F
:105040001B9190F82A102A9190F82910299190F834
:1050500022101A9190F821101991B0F8231018918C
:10506000B0F80F102791B0F80D102691017F28910C
:10507000C17E2591B0F81D10249190F8281023913D
:10508000B0F8091098F80000CDE90032022233464A
:1050900009BA090C01F0A2FB98F801100222BDF830
:1050A000AE7098F800003346CDE9002199FA89F1F5
:1050B0000222090C01F092FB29BA4BEA0A209FED6B
:1050C000982A02260D0C684300EE100A239840EA45
:1050D00004200DF1AE0401EE100A2346B8EE411A89
:1050E000B8EEC00A81EE029A80EE090ABDEEC00A4F
:1050F0002499259A10EE100A09BA1FFA80FA38BAD4
:105100004FEA11492899000C00FB0AF041EA0221FC
:10511000022217910029494608BF20FA01F1080A26
:10512000BDF8AEB028918DF8AE008DF8AF1098F8AC
:10513000011098F80000CDE90061269909BA090C20
:10514000169102F061F898F801100020022223461F
:10515000ADF8AE0098F80000CDE90061279909BAD2
:10516000090C159102F050F8012002EE105A00FAD5
:1051700009F000EE100AF8BA01EE100AB8EEC0BA53
:10518000B8EEC10AB8EE42CA80EE0B0A20EE0CAAB5
:105190008AEE090A05F04AFE9BFABBF0B0EE408A9F
:1051A00000EE100AB8EEC00A80EE0B0A20EE0CBA30
:1051B0008BEE090A05F03AFEBDEEC81ABDEEC00A34
:1051C000DDE9291040EA01200028049000F09382D4
:1051D000189811EE101A9FED53CA00BA000C00FB8C
:1051E00001F310EE101A00FB01F7DDE9191040EA97
:1051F000012012901B9800BA000C11901C9800BA64
:10520000000C10909BFA8BF0DDE91D21000C00FBD7
:105210000AF041EA0221179A002A08BF20FA09F58C
:1052200028B2289ABDEECB0ABDEECA1A9FED3EBA4F
:1052300003EE100A481C0F9012B2DDE91F1002EEB7
:10524000102A41EA002001300E90DDE92110139769
:10525000149341EA002001300390B8B20D90000A87
:105260000C9098B20B90000A0A9010EE100A099068
:10527000000A08900020059011EE100A0790000A1D
:1052800006900020B8EEC29AB8EEC3AA279000207C
:105290002A900020299000BF0398FBF7D7FFDDF884
:1052A000A0C010260022182020E000BF872A11D8B5
:1052B00000EE102AB8EEC00A20EE0B0A05F00EFD33
:1052C00020EE090A20EE0C0ABDEEC00A299D10EE60
:1052D000100A45E0E12A12D900EE102A9008B8EE33
:1052E000C00A4E2820EE0B0AE8D90EE001461798B6
:1052F000CDE925612392022818D12D2AD6D800EEB7
:10530000102AB8EEC00A20EE0B0A644605F0DCFD58
:1053100020EE0A0A204620EE0C0ABDEEC00A1DE06F
:105320000000C8424260B53F34FA8E3C00EE102ABD
:10533000B8EEC00A20EE0B8AB0EE480A05F0CEFCAB
:1053400020EE09DAB0EE480A05F0BEFDBDEECD1A3A
:1053500020EE0A0ABDEEC00A11EE100A10EE105A35
:1053600040F2200786B28DF8AF00289002240DF19C
:10537000AE090222C1F20007300A4B46797820902C
:105380008DF8AE003878CDE90041169901F03CFF68
:10539000A8B279788DF8AF50299502224B461F901C
:1053A000000A22908DF8AE003878CDE900411599B9
:1053B00001F02AFF0E98FBF749FF7978387802222E
:1053C0004B46CDE90041109D294601F007FABDF892
:1053D000AE00797802224B4621903878CDE9004121
:1053E000DDF84480414601F0F9F9BDF8AE00DDF882
:1053F0003CB01E905846FBF729FF79783878022296
:105400004B46CDE90041294601F0E8F9BDF8AE0070
:10541000797802224B461D903878CDE9004141460B
:1054200001F0DCF9BDF8AE0018905846FBF70EFF0E
:105430007978387802224B46CDE90041294601F0BF
:10544000CDF979783878BDF8AE5002224B46CDE9D7
:105450000041414601F0C2F9BDF8AE905846FBF755
:10546000F5FE219833462DBA01BAA6EB11402191E1
:10547000002848BF4042DDE91F6EDDE91D1C82B2F5
:10548000002A08BF104687B20CBAA3EB14410029CA
:1054900048BF49421FFA81F8B84588BF0846A3EBC8
:1054A0001541CDE91F241D9584B2002948BF49420A
:1054B0008AB2279DA24288BF08460B9B81B29942BF
:1054C0002A994AF2000388BF01312A91C2F20003EF
:1054D000090A19735872000A18720C989871149876
:1054E00058710A9818710998D87008989870079898
:1054F0005870069818709CFA8CF0A6EB104C199016
:10550000BCF1000F48BFCCF1000C18991FFA8CF0C9
:10551000002808BF84461E97CDE91A2472461FFA58
:105520008CF44AF200070BBAC2F20007A6EB134153
:1055300018934B46002948BF49421FFA81F993FA54
:1055400083FEA14588BF8C46A6EB1E41CDF870A016
:10555000C2461FFA8CFB002948BF49421FFA81F856
:10556000D84588BF8C46139B4FEA1C21B97287F837
:105570000BC01FFA8CF1FB710D9B994288BF01355E
:10558000290A259EDDF8A0C02795249BB9732A9986
:105590007973B1B2FD7308367A5441F00105229A4D
:1055A00007F805C041F002057A55299A41F0030534
:1055B0007A551F9A002A219A18BF130C1E9A9245F9
:1055C000209A88BF130CDDE91A5295421D9A88BFB4
:1055D000130C41F00405DDF870A024931A0A00288A
:1055E00019987A5541F00502BB5418BF4FEA104A8A
:1055F000A145189841F0060288BF4FEA104AD845E5
:1056000088BF4FEA1E4A4FEA1A20269DB85441F03F
:105610000700239A07F800A01298024405F1080039
:10562000B2F5B47FFFF462AE49F27C180598CC2144
:10563000C2F2010888F80C0088F80A60B6B2000AC5
:1056400088F80810340A002E88F80B0088F8094002
:1056500008D04AF2000108F10D003246C2F2000102
:10566000FAF7F1FDAE20002146F0070C88F80000A3
:1056700088F8041088F8024088F803C04AF2200035
:1056800018F800204AF2220088F8012018F80020BB
:105690006FF0030088F80520AAB2831A08F1060209
:1056A000177854789078D578043302F1040239449D
:1056B0002144084405EB0001F2D110785378927828
:1056C000084441461844104488F804000CF10600D0
:1056D00082B240F2F420C1F20000FEF749FB0A203A
:1056E000FBF7B4FD05980246421C0498114605924A
:1056F00082427FF4D1AD49F27C11AE20C2F20101A9
:105700000870FF2008724FF4407048804AF2200071
:10571000085C48704AF22200085C48718879CA79AE
:10572000104409220138087140F2F420C1F200004F
:10573000FEF71EFB00202CB0BDEC0C8B01B0BDE8C9
:10574000F08F00002DE9F04F81B044F220014FF4BA
:10575000A242C2F201018B5C112B17D1FF234FF043
:1057600000088B5440F29C03C1F20003C3E9028895
:10577000C3F8108040F22003C1F2000383F80580D3
:1057800045F24C1951F8093063B94CE040F29C02E3
:10579000C1F20002D2F80C8045F24C1951F80930E0
:1057A000002B40D040F29C0242F68E03471C00269C
:1057B00045F2501BC1F20002D2F808E040F220028C
:1057C000C1F2000201EB0E0A0AEB0305537900BF98
:1057D000BC1951F80BC014F8014CE04508D20AEB93
:1057E00006025473BC5D947346F0010406E000BFEA
:1057F000AA1902F8014C741CBA5DAA55025D845DB9
:1058000002362344134451F809209642E0D340F273
:10581000200040F29C02C1F20000C1F2000243717C
:105820000EEB0600906045F2501340F29C0008F128
:105830000102CB58C1F20000C2609A422AD140F264
:1058400020030022C1F2000382605F795A7102696D
:1058500001320261100A0A73C8728879CB790E7A14
:105860004D7A384418448B7A30442844184400EB6D
:1058700012201044087145F25810085A063082B2BE
:1058800040F2F420C1F20000FEF772FA002001B0ED
:10589000BDE8F08F45F25413CB589A4239D10269D2
:1058A00042F68C0340F2200642F68B07C1F2000656
:1058B00001327579CA54130ACB5542F6860742F66F
:1058C0008703CF5DCB5C2F443B4442F68807CF5D16
:1058D0003B4442F68907CF5D3B4442F68A07CF5DE1
:1058E0003B4442F6840703EB12231344CB550023B9
:1058F0007371C0E90233026145F25810085A01F58C
:105900002251063082B240F2F420C1F20000FEF7CC
:105910002FFA002001B0BDE8F08F000044F2200112
:105920004FF4A242C2F201018B5C112B0FD1FF2375
:105930008B5440F29C030022C1F20003C3E905220C
:10594000DA6140F22003C1F200039A7104E040F2F0
:105950009C02C1F2000292692DE9F04F81B045F23C
:105960004C1A51F80A30022B37D340F2200C40F287
:105970009C0E002645F2501B42F68D0842F68E0919
:10598000C1F2000CC1F2000E9CF80640DEF8145083
:1059900000EB460351F80B705B78BA4206D24F1900
:1059A0007B7310F81630BB7307E000BF4F1907F880
:1059B000083010F8163007F8093030F81630013684
:1059C00002351C4404EB132451F80A30B6EB530F94
:1059D000DED38CF80640CEF8145045F2501340F256
:1059E0009C000132CB58C1F2000082619A422AD158
:1059F00040F220030022C1F2000342619F799A71B4
:105A0000C2690132C261100A0A73C8728879CB79FF
:105A10000E7A4D7A384418448B7A3044284418441E
:105A200000EB12201044087145F25810085A063055
:105A300082B240F2F420C1F20000FEF799F9002092
:105A400001B0BDE8F08F45F25413CB589A4239D1DA
:105A5000C26942F68C0340F2200642F68B07C1F27F
:105A600000060132B579CA54130ACB5542F68607AF
:105A700042F68703CF5DCB5C2F443B4442F6880758
:105A8000CF5D3B4442F68907CF5D3B4442F68A072F
:105A9000CF5D3B4442F6840703EB12231344CB55FE
:105AA0000023B371C0E90533C26145F25810085AAA
:105AB00001F52251063082B240F2F420C1F200001A
:105AC000FEF756F9002001B0BDE8F08F2DE9F04F48
:105AD00083B040F2210B054607208A46C1F2000B35
